{
  "contractName": "Marketplace",
  "abi": [
    {
      "constant": true,
      "inputs": [
        {
          "name": "",
          "type": "address"
        }
      ],
      "name": "storeOwners",
      "outputs": [
        {
          "name": "",
          "type": "bool"
        }
      ],
      "payable": false,
      "stateMutability": "view",
      "type": "function"
    },
    {
      "constant": true,
      "inputs": [
        {
          "name": "_operator",
          "type": "address"
        },
        {
          "name": "_role",
          "type": "string"
        }
      ],
      "name": "checkRole",
      "outputs": [],
      "payable": false,
      "stateMutability": "view",
      "type": "function"
    },
    {
      "constant": true,
      "inputs": [],
      "name": "ROLE_WHITELISTED",
      "outputs": [
        {
          "name": "",
          "type": "string"
        }
      ],
      "payable": false,
      "stateMutability": "view",
      "type": "function"
    },
    {
      "constant": true,
      "inputs": [
        {
          "name": "_operator",
          "type": "address"
        },
        {
          "name": "_role",
          "type": "string"
        }
      ],
      "name": "hasRole",
      "outputs": [
        {
          "name": "",
          "type": "bool"
        }
      ],
      "payable": false,
      "stateMutability": "view",
      "type": "function"
    },
    {
      "constant": false,
      "inputs": [
        {
          "name": "_operators",
          "type": "address[]"
        }
      ],
      "name": "removeAddressesFromWhitelist",
      "outputs": [],
      "payable": false,
      "stateMutability": "nonpayable",
      "type": "function"
    },
    {
      "constant": false,
      "inputs": [
        {
          "name": "_operator",
          "type": "address"
        }
      ],
      "name": "removeAddressFromWhitelist",
      "outputs": [],
      "payable": false,
      "stateMutability": "nonpayable",
      "type": "function"
    },
    {
      "constant": true,
      "inputs": [
        {
          "name": "",
          "type": "address"
        }
      ],
      "name": "admins",
      "outputs": [
        {
          "name": "",
          "type": "bool"
        }
      ],
      "payable": false,
      "stateMutability": "view",
      "type": "function"
    },
    {
      "constant": false,
      "inputs": [],
      "name": "renounceOwnership",
      "outputs": [],
      "payable": false,
      "stateMutability": "nonpayable",
      "type": "function"
    },
    {
      "constant": true,
      "inputs": [
        {
          "name": "",
          "type": "address"
        },
        {
          "name": "",
          "type": "uint256"
        }
      ],
      "name": "storeAddressesByOwner",
      "outputs": [
        {
          "name": "",
          "type": "address"
        }
      ],
      "payable": false,
      "stateMutability": "view",
      "type": "function"
    },
    {
      "constant": true,
      "inputs": [],
      "name": "owner",
      "outputs": [
        {
          "name": "",
          "type": "address"
        }
      ],
      "payable": false,
      "stateMutability": "view",
      "type": "function"
    },
    {
      "constant": false,
      "inputs": [
        {
          "name": "_operators",
          "type": "address[]"
        }
      ],
      "name": "addAddressesToWhitelist",
      "outputs": [],
      "payable": false,
      "stateMutability": "nonpayable",
      "type": "function"
    },
    {
      "constant": false,
      "inputs": [
        {
          "name": "_newOwner",
          "type": "address"
        }
      ],
      "name": "transferOwnership",
      "outputs": [],
      "payable": false,
      "stateMutability": "nonpayable",
      "type": "function"
    },
    {
      "inputs": [],
      "payable": false,
      "stateMutability": "nonpayable",
      "type": "constructor"
    },
    {
      "payable": true,
      "stateMutability": "payable",
      "type": "fallback"
    },
    {
      "anonymous": false,
      "inputs": [
        {
          "indexed": false,
          "name": "storeOwnerAddress",
          "type": "address"
        }
      ],
      "name": "StoreOwnerAdded",
      "type": "event"
    },
    {
      "anonymous": false,
      "inputs": [
        {
          "indexed": false,
          "name": "owner",
          "type": "address"
        },
        {
          "indexed": false,
          "name": "store",
          "type": "address"
        }
      ],
      "name": "NewStoreCreated",
      "type": "event"
    },
    {
      "anonymous": false,
      "inputs": [
        {
          "indexed": true,
          "name": "operator",
          "type": "address"
        },
        {
          "indexed": false,
          "name": "role",
          "type": "string"
        }
      ],
      "name": "RoleAdded",
      "type": "event"
    },
    {
      "anonymous": false,
      "inputs": [
        {
          "indexed": true,
          "name": "operator",
          "type": "address"
        },
        {
          "indexed": false,
          "name": "role",
          "type": "string"
        }
      ],
      "name": "RoleRemoved",
      "type": "event"
    },
    {
      "anonymous": false,
      "inputs": [
        {
          "indexed": true,
          "name": "previousOwner",
          "type": "address"
        }
      ],
      "name": "OwnershipRenounced",
      "type": "event"
    },
    {
      "anonymous": false,
      "inputs": [
        {
          "indexed": true,
          "name": "previousOwner",
          "type": "address"
        },
        {
          "indexed": true,
          "name": "newOwner",
          "type": "address"
        }
      ],
      "name": "OwnershipTransferred",
      "type": "event"
    },
    {
      "constant": true,
      "inputs": [],
      "name": "getStoreAddressesByOwner",
      "outputs": [
        {
          "name": "",
          "type": "address[]"
        }
      ],
      "payable": false,
      "stateMutability": "view",
      "type": "function"
    },
    {
      "constant": false,
      "inputs": [
        {
          "name": "name",
          "type": "string"
        },
        {
          "name": "description",
          "type": "string"
        }
      ],
      "name": "createNewStore",
      "outputs": [],
      "payable": false,
      "stateMutability": "nonpayable",
      "type": "function"
    },
    {
      "constant": true,
      "inputs": [],
      "name": "getUserType",
      "outputs": [
        {
          "name": "",
          "type": "string"
        }
      ],
      "payable": false,
      "stateMutability": "view",
      "type": "function"
    },
    {
      "constant": false,
      "inputs": [],
      "name": "withdraw",
      "outputs": [],
      "payable": true,
      "stateMutability": "payable",
      "type": "function"
    },
    {
      "constant": false,
      "inputs": [
        {
          "name": "storeOwner",
          "type": "address"
        }
      ],
      "name": "addAddressToWhitelist",
      "outputs": [],
      "payable": false,
      "stateMutability": "nonpayable",
      "type": "function"
    },
    {
      "constant": false,
      "inputs": [
        {
          "name": "storeOwner",
          "type": "address"
        }
      ],
      "name": "addStoreOwner",
      "outputs": [],
      "payable": false,
      "stateMutability": "nonpayable",
      "type": "function"
    },
    {
      "constant": true,
      "inputs": [
        {
          "name": "_storeOwner",
          "type": "address"
        }
      ],
      "name": "whitelist",
      "outputs": [
        {
          "name": "",
          "type": "bool"
        }
      ],
      "payable": false,
      "stateMutability": "view",
      "type": "function"
    }
  ],
  "bytecode": "0x608060405234801561001057600080fd5b50336000806101000a81548173ffffffffffffffffffffffffffffffffffffffff021916908373ffffffffffffffffffffffffffffffffffffffff1602179055506001600260003373ffffffffffffffffffffffffffffffffffffffff1673ffffffffffffffffffffffffffffffffffffffff16815260200190815260200160002060006101000a81548160ff021916908315150217905550613307806100b86000396000f3006080604052600436106200011b576000357c0100000000000000000000000000000000000000000000000000000000900463ffffffff168063057cc2a1146200011d5780630988ca8c146200017b5780630a25cced146200020757806318b919e914620002b9578063217fe6c6146200034f57806324953eaa14620003f3578063286dd3f5146200045c5780633ccfd60b14620004a25780634199007714620004ae578063429b62e51462000544578063715018a614620005a257806374d9037b14620005bc5780637b9417c8146200064c5780638da5cb5b14620006925780639adeb5f114620006ec5780639b19251a1462000732578063b9e17a731462000790578063e2ec6ec31462000801578063f2fde38b146200086a575b005b3480156200012a57600080fd5b5062000161600480360381019080803573ffffffffffffffffffffffffffffffffffffffff169060200190929190505050620008b0565b604051808215151515815260200191505060405180910390f35b3480156200018857600080fd5b5062000205600480360381019080803573ffffffffffffffffffffffffffffffffffffffff169060200190929190803590602001908201803590602001908080601f0160208091040260200160405190810160405280939291908181526020018383808284378201915050505050509192919290505050620008d0565b005b3480156200021457600080fd5b50620002b7600480360381019080803590602001908201803590602001908080601f0160208091040260200160405190810160405280939291908181526020018383808284378201915050505050509192919290803590602001908201803590602001908080601f016020809104026020016040519081016040528093929190818152602001838380828437820191505050505050919291929050505062000955565b005b348015620002c657600080fd5b50620002d162000c7a565b6040518080602001828103825283818151815260200191508051906020019080838360005b8381101562000313578082015181840152602081019050620002f6565b50505050905090810190601f168015620003415780820380516001836020036101000a031916815260200191505b509250505060405180910390f35b3480156200035c57600080fd5b50620003d9600480360381019080803573ffffffffffffffffffffffffffffffffffffffff169060200190929190803590602001908201803590602001908080601f016020809104026020016040519081016040528093929190818152602001838380828437820191505050505050919291929050505062000cb3565b604051808215151515815260200191505060405180910390f35b3480156200040057600080fd5b506200045a6004803603810190808035906020019082018035906020019080806020026020016040519081016040528093929190818152602001838360200280828437820191505050505050919291929050505062000d3e565b005b3480156200046957600080fd5b50620004a0600480360381019080803573ffffffffffffffffffffffffffffffffffffffff16906020019092919050505062000de0565b005b620004ac62000e80565b005b348015620004bb57600080fd5b50620004c662000f41565b6040518080602001828103825283818151815260200191508051906020019080838360005b8381101562000508578082015181840152602081019050620004eb565b50505050905090810190601f168015620005365780820380516001836020036101000a031916815260200191505b509250505060405180910390f35b3480156200055157600080fd5b5062000588600480360381019080803573ffffffffffffffffffffffffffffffffffffffff169060200190929190505050620010af565b604051808215151515815260200191505060405180910390f35b348015620005af57600080fd5b50620005ba620010cf565b005b348015620005c957600080fd5b506200060a600480360381019080803573ffffffffffffffffffffffffffffffffffffffff16906020019092919080359060200190929190505050620011d2565b604051808273ffffffffffffffffffffffffffffffffffffffff1673ffffffffffffffffffffffffffffffffffffffff16815260200191505060405180910390f35b3480156200065957600080fd5b5062000690600480360381019080803573ffffffffffffffffffffffffffffffffffffffff16906020019092919050505062001220565b005b3480156200069f57600080fd5b50620006aa620012c4565b604051808273ffffffffffffffffffffffffffffffffffffffff1673ffffffffffffffffffffffffffffffffffffffff16815260200191505060405180910390f35b348015620006f957600080fd5b5062000730600480360381019080803573ffffffffffffffffffffffffffffffffffffffff169060200190929190505050620012e9565b005b3480156200073f57600080fd5b5062000776600480360381019080803573ffffffffffffffffffffffffffffffffffffffff1690602001909291905050506200141e565b604051808215151515815260200191505060405180910390f35b3480156200079d57600080fd5b50620007a862001468565b6040518080602001828103825283818151815260200191508051906020019060200280838360005b83811015620007ed578082015181840152602081019050620007d0565b505050509050019250505060405180910390f35b3480156200080e57600080fd5b50620008686004803603810190808035906020019082018035906020019080806020026020016040519081016040528093929190818152602001838360200280828437820191505050505050919291929050505062001535565b005b3480156200087757600080fd5b50620008ae600480360381019080803573ffffffffffffffffffffffffffffffffffffffff169060200190929190505050620015d7565b005b60036020528060005260406000206000915054906101000a900460ff1681565b62000951826001836040518082805190602001908083835b6020831015156200090f5780518252602082019150602081019050602083039250620008e8565b6001836020036101000a03801982511681845116808217855250505050505090500191505090815260200160405180910390206200164190919063ffffffff16565b5050565b600060011515600360003373ffffffffffffffffffffffffffffffffffffffff1673ffffffffffffffffffffffffffffffffffffffff16815260200190815260200160002060009054906101000a900460ff161515141515620009b757600080fd5b33620009f9816040805190810160405280600981526020017f77686974656c6973740000000000000000000000000000000000000000000000815250620008d0565b33848462000a0662001ae3565b808473ffffffffffffffffffffffffffffffffffffffff1673ffffffffffffffffffffffffffffffffffffffff1681526020018060200180602001838103835285818151815260200191508051906020019080838360005b8381101562000a7b57808201518184015260208101905062000a5e565b50505050905090810190601f16801562000aa95780820380516001836020036101000a031916815260200191505b50838103825284818151815260200191508051906020019080838360005b8381101562000ae457808201518184015260208101905062000ac7565b50505050905090810190601f16801562000b125780820380516001836020036101000a031916815260200191505b5095505050505050604051809103906000f08015801562000b37573d6000803e3d6000fd5b509150600460003373ffffffffffffffffffffffffffffffffffffffff1673ffffffffffffffffffffffffffffffffffffffff1681526020019081526020016000208290806001815401808255809150509060018203906000526020600020016000909192909190916101000a81548173ffffffffffffffffffffffffffffffffffffffff021916908373ffffffffffffffffffffffffffffffffffffffff160217905550507fdf610879fac4a03d912c46475080cd290bbc0bac06f066f649dc9ccd13bb5d723383604051808373ffffffffffffffffffffffffffffffffffffffff1673ffffffffffffffffffffffffffffffffffffffff1681526020018273ffffffffffffffffffffffffffffffffffffffff1673ffffffffffffffffffffffffffffffffffffffff1681526020019250505060405180910390a150505050565b6040805190810160405280600981526020017f77686974656c697374000000000000000000000000000000000000000000000081525081565b600062000d36836001846040518082805190602001908083835b60208310151562000cf4578051825260208201915060208101905060208303925062000ccd565b6001836020036101000a03801982511681845116808217855250505050505090500191505090815260200160405180910390206200165d90919063ffffffff16565b905092915050565b60008060009054906101000a900473ffffffffffffffffffffffffffffffffffffffff1673ffffffffffffffffffffffffffffffffffffffff163373ffffffffffffffffffffffffffffffffffffffff1614151562000d9c57600080fd5b600090505b815181101562000ddc5762000dce828281518110151562000dbe57fe5b9060200190602002015162000de0565b808060010191505062000da1565b5050565b6000809054906101000a900473ffffffffffffffffffffffffffffffffffffffff1673ffffffffffffffffffffffffffffffffffffffff163373ffffffffffffffffffffffffffffffffffffffff1614151562000e3c57600080fd5b62000e7d816040805190810160405280600981526020017f77686974656c6973740000000000000000000000000000000000000000000000815250620016b6565b50565b60011515600260003373ffffffffffffffffffffffffffffffffffffffff1673ffffffffffffffffffffffffffffffffffffffff16815260200190815260200160002060009054906101000a900460ff16151514151562000ee057600080fd5b3373ffffffffffffffffffffffffffffffffffffffff166108fc3073ffffffffffffffffffffffffffffffffffffffff16319081150290604051600060405180830381858888f1935050505015801562000f3e573d6000803e3d6000fd5b50565b606060011515600260003373ffffffffffffffffffffffffffffffffffffffff1673ffffffffffffffffffffffffffffffffffffffff16815260200190815260200160002060009054906101000a900460ff161515141562000fdb576040805190810160405280600581526020017f61646d696e0000000000000000000000000000000000000000000000000000008152509050620010ac565b60011515600360003373ffffffffffffffffffffffffffffffffffffffff1673ffffffffffffffffffffffffffffffffffffffff16815260200190815260200160002060009054906101000a900460ff161515141562001073576040805190810160405280600a81526020017f73746f72654f776e6572000000000000000000000000000000000000000000008152509050620010ac565b6040805190810160405280600781526020017f73686f707065720000000000000000000000000000000000000000000000000081525090505b90565b60026020528060005260406000206000915054906101000a900460ff1681565b6000809054906101000a900473ffffffffffffffffffffffffffffffffffffffff1673ffffffffffffffffffffffffffffffffffffffff163373ffffffffffffffffffffffffffffffffffffffff161415156200112b57600080fd5b6000809054906101000a900473ffffffffffffffffffffffffffffffffffffffff1673ffffffffffffffffffffffffffffffffffffffff167ff8df31144d9c2f0f6b59d69b8b98abd5459d07f2742c4df920b25aae33c6482060405160405180910390a260008060006101000a81548173ffffffffffffffffffffffffffffffffffffffff021916908373ffffffffffffffffffffffffffffffffffffffff160217905550565b600460205281600052604060002081815481101515620011ee57fe5b906000526020600020016000915091509054906101000a900473ffffffffffffffffffffffffffffffffffffffff1681565b60011515600260003373ffffffffffffffffffffffffffffffffffffffff1673ffffffffffffffffffffffffffffffffffffffff16815260200190815260200160002060009054906101000a900460ff1615151415156200128057600080fd5b620012c1816040805190810160405280600981526020017f77686974656c6973740000000000000000000000000000000000000000000000815250620017f1565b50565b6000809054906101000a900473ffffffffffffffffffffffffffffffffffffffff1681565b60011515600260003373ffffffffffffffffffffffffffffffffffffffff1673ffffffffffffffffffffffffffffffffffffffff16815260200190815260200160002060009054906101000a900460ff1615151415156200134957600080fd5b62001354816200141e565b15156200136057600080fd5b6001600360008373ffffffffffffffffffffffffffffffffffffffff1673ffffffffffffffffffffffffffffffffffffffff16815260200190815260200160002060006101000a81548160ff0219169083151502179055507fe095b54135d91dfdb849d8f2a1232ed69da67f78cfd33a34a834084d8d037e9a81604051808273ffffffffffffffffffffffffffffffffffffffff1673ffffffffffffffffffffffffffffffffffffffff16815260200191505060405180910390a150565b600062001461826040805190810160405280600981526020017f77686974656c697374000000000000000000000000000000000000000000000081525062000cb3565b9050919050565b6060600460003373ffffffffffffffffffffffffffffffffffffffff1673ffffffffffffffffffffffffffffffffffffffff1681526020019081526020016000208054806020026020016040519081016040528092919081815260200182805480156200152b57602002820191906000526020600020905b8160009054906101000a900473ffffffffffffffffffffffffffffffffffffffff1673ffffffffffffffffffffffffffffffffffffffff1681526020019060010190808311620014e0575b5050505050905090565b60008060009054906101000a900473ffffffffffffffffffffffffffffffffffffffff1673ffffffffffffffffffffffffffffffffffffffff163373ffffffffffffffffffffffffffffffffffffffff161415156200159357600080fd5b600090505b8151811015620015d357620015c58282815181101515620015b557fe5b9060200190602002015162001220565b808060010191505062001598565b5050565b6000809054906101000a900473ffffffffffffffffffffffffffffffffffffffff1673ffffffffffffffffffffffffffffffffffffffff163373ffffffffffffffffffffffffffffffffffffffff161415156200163357600080fd5b6200163e816200192c565b50565b6200164d82826200165d565b15156200165957600080fd5b5050565b60008260000160008373ffffffffffffffffffffffffffffffffffffffff1673ffffffffffffffffffffffffffffffffffffffff16815260200190815260200160002060009054906101000a900460ff16905092915050565b62001737826001836040518082805190602001908083835b602083101515620016f55780518252602082019150602081019050602083039250620016ce565b6001836020036101000a038019825116818451168082178552505050505050905001915050908152602001604051809103902062001a2790919063ffffffff16565b8173ffffffffffffffffffffffffffffffffffffffff167fd211483f91fc6eff862467f8de606587a30c8fc9981056f051b897a418df803a826040518080602001828103825283818151815260200191508051906020019080838360005b83811015620017b257808201518184015260208101905062001795565b50505050905090810190601f168015620017e05780820380516001836020036101000a031916815260200191505b509250505060405180910390a25050565b62001872826001836040518082805190602001908083835b60208310151562001830578051825260208201915060208101905060208303925062001809565b6001836020036101000a038019825116818451168082178552505050505050905001915050908152602001604051809103902062001a8590919063ffffffff16565b8173ffffffffffffffffffffffffffffffffffffffff167fbfec83d64eaa953f2708271a023ab9ee82057f8f3578d548c1a4ba0b5b700489826040518080602001828103825283818151815260200191508051906020019080838360005b83811015620018ed578082015181840152602081019050620018d0565b50505050905090810190601f1680156200191b5780820380516001836020036101000a031916815260200191505b509250505060405180910390a25050565b600073ffffffffffffffffffffffffffffffffffffffff168173ffffffffffffffffffffffffffffffffffffffff16141515156200196957600080fd5b8073ffffffffffffffffffffffffffffffffffffffff166000809054906101000a900473ffffffffffffffffffffffffffffffffffffffff1673ffffffffffffffffffffffffffffffffffffffff167f8be0079c531659141344cd1fd0a4f28419497f9722a3daafe3b4186f6b6457e060405160405180910390a3806000806101000a81548173ffffffffffffffffffffffffffffffffffffffff021916908373ffffffffffffffffffffffffffffffffffffffff16021790555050565b60008260000160008373ffffffffffffffffffffffffffffffffffffffff1673ffffffffffffffffffffffffffffffffffffffff16815260200190815260200160002060006101000a81548160ff0219169083151502179055505050565b60018260000160008373ffffffffffffffffffffffffffffffffffffffff1673ffffffffffffffffffffffffffffffffffffffff16815260200190815260200160002060006101000a81548160ff0219169083151502179055505050565b6040516117e78062001af5833901905600608060405260008060146101000a81548160ff0219169083151502179055506000600560006101000a81548160ff0219169083151502179055503480156200004657600080fd5b50604051620017e7380380620017e7833981018060405281019080805190602001909291908051820192919060200180518201929190505050336000806101000a81548173ffffffffffffffffffffffffffffffffffffffff021916908373ffffffffffffffffffffffffffffffffffffffff160217905550816020815111151515620000d257600080fd5b816020815111151515620000e557600080fd5b84600160006101000a81548173ffffffffffffffffffffffffffffffffffffffff021916908373ffffffffffffffffffffffffffffffffffffffff16021790555083600290805190602001906200013e9291906200016b565b508260039080519060200190620001579291906200016b565b50600060048190555050505050506200021a565b828054600181600116156101000203166002900490600052602060002090601f016020900481019282601f10620001ae57805160ff1916838001178555620001df565b82800160010185558215620001df579182015b82811115620001de578251825591602001919060010190620001c1565b5b509050620001ee9190620001f2565b5090565b6200021791905b8082111562000213576000816000905550600101620001f9565b5090565b90565b6115bd806200022a6000396000f3006080604052600436106100d0576000357c0100000000000000000000000000000000000000000000000000000000900463ffffffff16806306fdde03146100d557806319ec95a8146101655780633ccfd60b146102935780633f4ba83a1461029d5780635894db03146102b45780635c975abb146102eb578063715018a61461031a5780637284e416146103315780638456cb59146103c15780638da5cb5b146103d85780639ad5c16f1461042f578063a0440426146104f2578063ccbb93e01461051c578063f2fde38b14610547575b600080fd5b3480156100e157600080fd5b506100ea61058a565b6040518080602001828103825283818151815260200191508051906020019080838360005b8381101561012a57808201518184015260208101905061010f565b50505050905090810190601f1680156101575780820380516001836020036101000a031916815260200191505b509250505060405180910390f35b34801561017157600080fd5b5061019060048036038101908080359060200190929190505050610628565b604051808781526020018681526020018060200180602001858152602001848152602001838103835287818151815260200191508051906020019080838360005b838110156101ec5780820151818401526020810190506101d1565b50505050905090810190601f1680156102195780820380516001836020036101000a031916815260200191505b50838103825286818151815260200191508051906020019080838360005b83811015610252578082015181840152602081019050610237565b50505050905090810190601f16801561027f5780820380516001836020036101000a031916815260200191505b509850505050505050505060405180910390f35b61029b610794565b005b3480156102a957600080fd5b506102b2610871565b005b3480156102c057600080fd5b506102e96004803603810190808035906020019092919080359060200190929190505050610940565b005b3480156102f757600080fd5b50610300610a81565b604051808215151515815260200191505060405180910390f35b34801561032657600080fd5b5061032f610a94565b005b34801561033d57600080fd5b50610346610b96565b6040518080602001828103825283818151815260200191508051906020019080838360005b8381101561038657808201518184015260208101905061036b565b50505050905090810190601f1680156103b35780820380516001836020036101000a031916815260200191505b509250505060405180910390f35b3480156103cd57600080fd5b506103d6610c34565b005b3480156103e457600080fd5b506103ed610d04565b604051808273ffffffffffffffffffffffffffffffffffffffff1673ffffffffffffffffffffffffffffffffffffffff16815260200191505060405180910390f35b34801561043b57600080fd5b506104f0600480360381019080803590602001908201803590602001908080601f0160208091040260200160405190810160405280939291908181526020018383808284378201915050505050509192919290803590602001908201803590602001908080601f01602080910402602001604051908101604052809392919081815260200183838082843782019150505050505091929192908035906020019092919080359060200190929190505050610d2a565b005b61051a6004803603810190808035906020019092919080359060200190929190505050610fd8565b005b34801561052857600080fd5b506105316112e1565b6040518082815260200191505060405180910390f35b34801561055357600080fd5b50610588600480360381019080803573ffffffffffffffffffffffffffffffffffffffff1690602001909291905050506112e7565b005b60028054600181600116156101000203166002900480601f0160208091040260200160405190810160405280929190818152602001828054600181600116156101000203166002900480156106205780601f106105f557610100808354040283529160200191610620565b820191906000526020600020905b81548152906001019060200180831161060357829003601f168201915b505050505081565b6006602052806000526040600020600091509050806000015490806001015490806002018054600181600116156101000203166002900480601f0160208091040260200160405190810160405280929190818152602001828054600181600116156101000203166002900480156106e05780601f106106b5576101008083540402835291602001916106e0565b820191906000526020600020905b8154815290600101906020018083116106c357829003601f168201915b505050505090806003018054600181600116156101000203166002900480601f01602080910402602001604051908101604052809291908181526020018280546001816001161561010002031660029004801561077e5780601f106107535761010080835404028352916020019161077e565b820191906000526020600020905b81548152906001019060200180831161076157829003601f168201915b5050505050908060040154908060050154905086565b6000809054906101000a900473ffffffffffffffffffffffffffffffffffffffff1673ffffffffffffffffffffffffffffffffffffffff163373ffffffffffffffffffffffffffffffffffffffff161415156107ef57600080fd5b600160009054906101000a900473ffffffffffffffffffffffffffffffffffffffff1673ffffffffffffffffffffffffffffffffffffffff166108fc3073ffffffffffffffffffffffffffffffffffffffff16319081150290604051600060405180830381858888f1935050505015801561086e573d6000803e3d6000fd5b50565b6000809054906101000a900473ffffffffffffffffffffffffffffffffffffffff1673ffffffffffffffffffffffffffffffffffffffff163373ffffffffffffffffffffffffffffffffffffffff161415156108cc57600080fd5b600060149054906101000a900460ff1615156108e757600080fd5b6000600560006101000a81548160ff0219169083151502179055507f0c3ccd23c1836807297aca2fda302f40baf2f67f3f9628351b352a91742c6c426001604051808215151515815260200191505060405180910390a1565b6000809054906101000a900473ffffffffffffffffffffffffffffffffffffffff1673ffffffffffffffffffffffffffffffffffffffff163373ffffffffffffffffffffffffffffffffffffffff1614151561099b57600080fd5b8160006109b38260045461134e90919063ffffffff16565b10151515610a29576040517f08c379a00000000000000000000000000000000000000000000000000000000081526004018080602001828103825260148152602001807f50726f6475637420646f6e27742065786973742e00000000000000000000000081525060200191505060405180910390fd5b816006600085815260200190815260200160002060010181905550827f5444e27daf0e59f39bc95935f5339c69ddfad9bccd2e151cbd50d6067b06c0d8836040518082815260200191505060405180910390a2505050565b600560009054906101000a900460ff1681565b6000809054906101000a900473ffffffffffffffffffffffffffffffffffffffff1673ffffffffffffffffffffffffffffffffffffffff163373ffffffffffffffffffffffffffffffffffffffff16141515610aef57600080fd5b6000809054906101000a900473ffffffffffffffffffffffffffffffffffffffff1673ffffffffffffffffffffffffffffffffffffffff167ff8df31144d9c2f0f6b59d69b8b98abd5459d07f2742c4df920b25aae33c6482060405160405180910390a260008060006101000a81548173ffffffffffffffffffffffffffffffffffffffff021916908373ffffffffffffffffffffffffffffffffffffffff160217905550565b60038054600181600116156101000203166002900480601f016020809104026020016040519081016040528092919081815260200182805460018160011615610100020316600290048015610c2c5780601f10610c0157610100808354040283529160200191610c2c565b820191906000526020600020905b815481529060010190602001808311610c0f57829003601f168201915b505050505081565b6000809054906101000a900473ffffffffffffffffffffffffffffffffffffffff1673ffffffffffffffffffffffffffffffffffffffff163373ffffffffffffffffffffffffffffffffffffffff16141515610c8f57600080fd5b600060149054906101000a900460ff16151515610cab57600080fd5b6001600560006101000a81548160ff0219169083151502179055507f0e2fb031ee032dc02d8011dc50b816eb450cf856abd8261680dac74f72165bd26001604051808215151515815260200191505060405180910390a1565b600160009054906101000a900473ffffffffffffffffffffffffffffffffffffffff1681565b610d326114b5565b6000809054906101000a900473ffffffffffffffffffffffffffffffffffffffff1673ffffffffffffffffffffffffffffffffffffffff163373ffffffffffffffffffffffffffffffffffffffff16141515610d8d57600080fd5b846020815111151515610d9f57600080fd5b846020815111151515610db157600080fd5b60c060405190810160405280610dd3600160045461136790919063ffffffff16565b8152602001600081526020018881526020018781526020018681526020018581525092508260066000610e12600160045461136790919063ffffffff16565b815260200190815260200160002060008201518160000155602082015181600101556040820151816002019080519060200190610e509291906114ec565b506060820151816003019080519060200190610e6d9291906114ec565b506080820151816004015560a08201518160050155905050610e9b600160045461136790919063ffffffff16565b60048190555082600001517fb5af4bc43b8512ddfb43851169a03f0270f40a3aa07e19afcb272a0d58625fcd8460400151856060015186608001518760a00151604051808060200180602001858152602001848152602001838103835287818151815260200191508051906020019080838360005b83811015610f2b578082015181840152602081019050610f10565b50505050905090810190601f168015610f585780820380516001836020036101000a031916815260200191505b50838103825286818151815260200191508051906020019080838360005b83811015610f91578082015181840152602081019050610f76565b50505050905090810190601f168015610fbe5780820380516001836020036101000a031916815260200191505b50965050505050505060405180910390a250505050505050565b816000610ff08260045461134e90919063ffffffff16565b10151515611066576040517f08c379a00000000000000000000000000000000000000000000000000000000081526004018080602001828103825260148152602001807f50726f6475637420646f6e27742065786973742e00000000000000000000000081525060200191505060405180910390fd5b8282600061109382600660008681526020019081526020016000206001015461134e90919063ffffffff16565b10151515611109576040517f08c379a00000000000000000000000000000000000000000000000000000000081526004018080602001828103825260138152602001807f4e6f7420656e6f7567682070726f647563742e0000000000000000000000000081525060200191505060405180910390fd5b848461113481600660008581526020019081526020016000206004015461138390919063ffffffff16565b34101515156111ab576040517f08c379a00000000000000000000000000000000000000000000000000000000081526004018080602001828103825260118152602001807f4e6f7420656e6f7567682045746865722e00000000000000000000000000000081525060200191505060405180910390fd5b6111d486600660008a81526020019081526020016000206001015461134e90919063ffffffff16565b6006600089815260200190815260200160002060010181905550867f7a53680a44b794c8ef9f1d38676e09a22df8a9bae6949d9da9d275b78d8d74d6876040518082815260200191505060405180910390a261124f81600660008581526020019081526020016000206004015461138390919063ffffffff16565b3411156112d8573373ffffffffffffffffffffffffffffffffffffffff166108fc6112ab61129c84600660008881526020019081526020016000206004015461138390919063ffffffff16565b3461134e90919063ffffffff16565b9081150290604051600060405180830381858888f193505050501580156112d6573d6000803e3d6000fd5b505b50505050505050565b60045481565b6000809054906101000a900473ffffffffffffffffffffffffffffffffffffffff1673ffffffffffffffffffffffffffffffffffffffff163373ffffffffffffffffffffffffffffffffffffffff1614151561134257600080fd5b61134b816113bb565b50565b600082821115151561135c57fe5b818303905092915050565b6000818301905082811015151561137a57fe5b80905092915050565b60008083141561139657600090506113b5565b81830290508183828115156113a757fe5b041415156113b157fe5b8090505b92915050565b600073ffffffffffffffffffffffffffffffffffffffff168173ffffffffffffffffffffffffffffffffffffffff16141515156113f757600080fd5b8073ffffffffffffffffffffffffffffffffffffffff166000809054906101000a900473ffffffffffffffffffffffffffffffffffffffff1673ffffffffffffffffffffffffffffffffffffffff167f8be0079c531659141344cd1fd0a4f28419497f9722a3daafe3b4186f6b6457e060405160405180910390a3806000806101000a81548173ffffffffffffffffffffffffffffffffffffffff021916908373ffffffffffffffffffffffffffffffffffffffff16021790555050565b60c0604051908101604052806000815260200160008152602001606081526020016060815260200160008152602001600081525090565b828054600181600116156101000203166002900490600052602060002090601f016020900481019282601f1061152d57805160ff191683800117855561155b565b8280016001018555821561155b579182015b8281111561155a57825182559160200191906001019061153f565b5b509050611568919061156c565b5090565b61158e91905b8082111561158a576000816000905550600101611572565b5090565b905600a165627a7a72305820412f11cbb0eda6a44d171f256a6631149da4819e16960a3ca64238291557f8d60029a165627a7a723058206eead5185633467145df3eff2fc3a3ebbfdcbefa8af1d6379d34a632ea4bf31b0029",
  "source": "pragma solidity ^0.4.18;\r\n\r\nimport \"./Store.sol\";\r\nimport \"openzeppelin-solidity/contracts/access/Whitelist.sol\";\r\n\r\n/** @title Marketplace contract. */\r\ncontract Marketplace is Whitelist {\r\n    mapping (address => bool) public admins;\r\n    mapping (address => bool) public storeOwners;\r\n    mapping (address => address[]) public storeAddressesByOwner;\r\n\r\n    event StoreOwnerAdded(address storeOwnerAddress);\r\n    event NewStoreCreated(address owner, address store);\r\n\r\n    modifier onlyAdmin() {\r\n        require(admins[msg.sender] == true);\r\n        _;\r\n    }\r\n\r\n    modifier onlyStoreOwner() {\r\n        require(storeOwners[msg.sender] == true);\r\n        _;\r\n    }\r\n\r\n    constructor() public {\r\n        admins[msg.sender] = true;\r\n    }\r\n\r\n  /** @dev Gets a list of store contract addresses that the msg.sender is the owner of.\r\n    * @return The list of store contract addresses.\r\n    */\r\n    function getStoreAddressesByOwner() public view returns (address[]) {\r\n        return storeAddressesByOwner[msg.sender];\r\n    }\r\n\r\n  /** @dev Generates a new store contract with msg.sender as the owner.\r\n    * @param name The name of the store.\r\n    * @param description The description of the store.\r\n    */\r\n    function createNewStore(string name, string description) public onlyStoreOwner onlyIfWhitelisted(msg.sender) {\r\n        Store newStore = new Store(msg.sender, name, description);\r\n        storeAddressesByOwner[msg.sender].push(newStore);\r\n        emit NewStoreCreated(msg.sender, newStore);\r\n    }\r\n\r\n  /** @dev Figures out what type of user msg.sender is.\r\n    * @return A string indicating what type of user msg.sender is.\r\n    */\r\n    function getUserType() public view returns (string) {\r\n        if (admins[msg.sender] == true) {\r\n            return \"admin\";\r\n        }\r\n        else if (storeOwners[msg.sender] == true) {\r\n            return \"storeOwner\";\r\n        }\r\n        else {\r\n            return \"shopper\";\r\n        }\r\n    }\r\n\r\n\r\n  /** @dev Admins can withdraw any funds sent to the contract.\r\n    */\r\n    function withdraw() public payable onlyAdmin {\r\n        msg.sender.transfer(address(this).balance);\r\n    }\r\n\r\n   \r\n   /**\r\n   * @dev add an address to the whitelist\r\n   * @param storeOwner address\r\n   * @return true if the address was added to the whitelist, false if the address was already in the whitelist\r\n   */\r\n    function addAddressToWhitelist(address storeOwner)\r\n    public\r\n    onlyAdmin\r\n    {\r\n        addRole(storeOwner, ROLE_WHITELISTED);\r\n\r\n    }\r\n\r\n    function addStoreOwner( address storeOwner) public onlyAdmin {\r\n        require(whitelist(storeOwner));\r\n        storeOwners[storeOwner] = true;\r\n\r\n        emit StoreOwnerAdded(storeOwner);\r\n    }\r\n\r\n  /**\r\n   * @dev getter to determine if address is in whitelist\r\n   */\r\n    function whitelist(address _storeOwner)\r\n    public\r\n    view\r\n    returns (bool)\r\n    {\r\n        return hasRole(_storeOwner, ROLE_WHITELISTED);\r\n    }\r\n\r\n\r\n \r\n  /** @dev Default payable function.\r\n    */\r\n    function () public payable {}\r\n}\r\n",
  "sourcePath": "C:\\Users\\kissg\\marketplace\\contracts\\Marketplace.sol",
  "compiler": {
    "name": "solc",
    "version": "0.4.24+commit.e67f0147.Emscripten.clang"
  },
  "schemaVersion": "2.0.1",
  "updatedAt": "2018-08-25T20:37:57.637Z"
}