{
  "contractName": "Store",
  "abi": [
    {
      "constant": true,
      "inputs": [],
      "name": "name",
      "outputs": [
        {
          "name": "",
          "type": "string"
        }
      ],
      "payable": false,
      "stateMutability": "view",
      "type": "function"
    },
    {
      "constant": true,
      "inputs": [
        {
          "name": "",
          "type": "uint256"
        }
      ],
      "name": "productsById",
      "outputs": [
        {
          "name": "id",
          "type": "uint256"
        },
        {
          "name": "productCount",
          "type": "uint256"
        },
        {
          "name": "name",
          "type": "string"
        },
        {
          "name": "description",
          "type": "string"
        },
        {
          "name": "price",
          "type": "uint256"
        },
        {
          "name": "quantity",
          "type": "uint256"
        }
      ],
      "payable": false,
      "stateMutability": "view",
      "type": "function"
    },
    {
      "constant": true,
      "inputs": [],
      "name": "paused",
      "outputs": [
        {
          "name": "",
          "type": "bool"
        }
      ],
      "payable": false,
      "stateMutability": "view",
      "type": "function"
    },
    {
      "constant": false,
      "inputs": [],
      "name": "renounceOwnership",
      "outputs": [],
      "payable": false,
      "stateMutability": "nonpayable",
      "type": "function"
    },
    {
      "constant": true,
      "inputs": [],
      "name": "description",
      "outputs": [
        {
          "name": "",
          "type": "string"
        }
      ],
      "payable": false,
      "stateMutability": "view",
      "type": "function"
    },
    {
      "constant": true,
      "inputs": [],
      "name": "owner",
      "outputs": [
        {
          "name": "",
          "type": "address"
        }
      ],
      "payable": false,
      "stateMutability": "view",
      "type": "function"
    },
    {
      "constant": true,
      "inputs": [],
      "name": "newestProductId",
      "outputs": [
        {
          "name": "",
          "type": "uint256"
        }
      ],
      "payable": false,
      "stateMutability": "view",
      "type": "function"
    },
    {
      "constant": false,
      "inputs": [
        {
          "name": "_newOwner",
          "type": "address"
        }
      ],
      "name": "transferOwnership",
      "outputs": [],
      "payable": false,
      "stateMutability": "nonpayable",
      "type": "function"
    },
    {
      "inputs": [
        {
          "name": "sender",
          "type": "address"
        },
        {
          "name": "storeName",
          "type": "string"
        },
        {
          "name": "storeDescription",
          "type": "string"
        }
      ],
      "payable": false,
      "stateMutability": "nonpayable",
      "type": "constructor"
    },
    {
      "anonymous": false,
      "inputs": [
        {
          "indexed": false,
          "name": "name",
          "type": "string"
        },
        {
          "indexed": false,
          "name": "description",
          "type": "string"
        },
        {
          "indexed": true,
          "name": "id",
          "type": "uint256"
        },
        {
          "indexed": false,
          "name": "price",
          "type": "uint256"
        },
        {
          "indexed": false,
          "name": "quantity",
          "type": "uint256"
        }
      ],
      "name": "NewProductAdded",
      "type": "event"
    },
    {
      "anonymous": false,
      "inputs": [
        {
          "indexed": true,
          "name": "id",
          "type": "uint256"
        },
        {
          "indexed": false,
          "name": "newProductCount",
          "type": "uint256"
        }
      ],
      "name": "ProductCountUpdated",
      "type": "event"
    },
    {
      "anonymous": false,
      "inputs": [
        {
          "indexed": true,
          "name": "id",
          "type": "uint256"
        },
        {
          "indexed": false,
          "name": "quantity",
          "type": "uint256"
        }
      ],
      "name": "PurchaseMade",
      "type": "event"
    },
    {
      "anonymous": false,
      "inputs": [
        {
          "indexed": false,
          "name": "ispaused",
          "type": "bool"
        }
      ],
      "name": "Paused",
      "type": "event"
    },
    {
      "anonymous": false,
      "inputs": [
        {
          "indexed": false,
          "name": "isunpaused",
          "type": "bool"
        }
      ],
      "name": "Unpaused",
      "type": "event"
    },
    {
      "anonymous": false,
      "inputs": [],
      "name": "Pause",
      "type": "event"
    },
    {
      "anonymous": false,
      "inputs": [],
      "name": "Unpause",
      "type": "event"
    },
    {
      "anonymous": false,
      "inputs": [
        {
          "indexed": true,
          "name": "previousOwner",
          "type": "address"
        }
      ],
      "name": "OwnershipRenounced",
      "type": "event"
    },
    {
      "anonymous": false,
      "inputs": [
        {
          "indexed": true,
          "name": "previousOwner",
          "type": "address"
        },
        {
          "indexed": true,
          "name": "newOwner",
          "type": "address"
        }
      ],
      "name": "OwnershipTransferred",
      "type": "event"
    },
    {
      "constant": false,
      "inputs": [
        {
          "name": "newProductName",
          "type": "string"
        },
        {
          "name": "newProductDescription",
          "type": "string"
        },
        {
          "name": "newProductPrice",
          "type": "uint256"
        },
        {
          "name": "newProductQuantity",
          "type": "uint256"
        }
      ],
      "name": "addNewProduct",
      "outputs": [],
      "payable": false,
      "stateMutability": "nonpayable",
      "type": "function"
    },
    {
      "constant": false,
      "inputs": [],
      "name": "withdraw",
      "outputs": [],
      "payable": true,
      "stateMutability": "payable",
      "type": "function"
    },
    {
      "constant": false,
      "inputs": [
        {
          "name": "id",
          "type": "uint256"
        },
        {
          "name": "newProductCount",
          "type": "uint256"
        }
      ],
      "name": "updateProductCount",
      "outputs": [],
      "payable": false,
      "stateMutability": "nonpayable",
      "type": "function"
    },
    {
      "constant": false,
      "inputs": [
        {
          "name": "id",
          "type": "uint256"
        },
        {
          "name": "quantity",
          "type": "uint256"
        }
      ],
      "name": "purchaseProduct",
      "outputs": [],
      "payable": true,
      "stateMutability": "payable",
      "type": "function"
    },
    {
      "constant": false,
      "inputs": [],
      "name": "pause",
      "outputs": [],
      "payable": false,
      "stateMutability": "nonpayable",
      "type": "function"
    },
    {
      "constant": false,
      "inputs": [],
      "name": "unpause",
      "outputs": [],
      "payable": false,
      "stateMutability": "nonpayable",
      "type": "function"
    }
  ],
  "bytecode": "0x608060405260008060146101000a81548160ff0219169083151502179055506000600560006101000a81548160ff0219169083151502179055503480156200004657600080fd5b50604051620017e7380380620017e7833981018060405281019080805190602001909291908051820192919060200180518201929190505050336000806101000a81548173ffffffffffffffffffffffffffffffffffffffff021916908373ffffffffffffffffffffffffffffffffffffffff160217905550816020815111151515620000d257600080fd5b816020815111151515620000e557600080fd5b84600160006101000a81548173ffffffffffffffffffffffffffffffffffffffff021916908373ffffffffffffffffffffffffffffffffffffffff16021790555083600290805190602001906200013e9291906200016b565b508260039080519060200190620001579291906200016b565b50600060048190555050505050506200021a565b828054600181600116156101000203166002900490600052602060002090601f016020900481019282601f10620001ae57805160ff1916838001178555620001df565b82800160010185558215620001df579182015b82811115620001de578251825591602001919060010190620001c1565b5b509050620001ee9190620001f2565b5090565b6200021791905b8082111562000213576000816000905550600101620001f9565b5090565b90565b6115bd806200022a6000396000f3006080604052600436106100d0576000357c0100000000000000000000000000000000000000000000000000000000900463ffffffff16806306fdde03146100d557806319ec95a8146101655780633ccfd60b146102935780633f4ba83a1461029d5780635894db03146102b45780635c975abb146102eb578063715018a61461031a5780637284e416146103315780638456cb59146103c15780638da5cb5b146103d85780639ad5c16f1461042f578063a0440426146104f2578063ccbb93e01461051c578063f2fde38b14610547575b600080fd5b3480156100e157600080fd5b506100ea61058a565b6040518080602001828103825283818151815260200191508051906020019080838360005b8381101561012a57808201518184015260208101905061010f565b50505050905090810190601f1680156101575780820380516001836020036101000a031916815260200191505b509250505060405180910390f35b34801561017157600080fd5b5061019060048036038101908080359060200190929190505050610628565b604051808781526020018681526020018060200180602001858152602001848152602001838103835287818151815260200191508051906020019080838360005b838110156101ec5780820151818401526020810190506101d1565b50505050905090810190601f1680156102195780820380516001836020036101000a031916815260200191505b50838103825286818151815260200191508051906020019080838360005b83811015610252578082015181840152602081019050610237565b50505050905090810190601f16801561027f5780820380516001836020036101000a031916815260200191505b509850505050505050505060405180910390f35b61029b610794565b005b3480156102a957600080fd5b506102b2610871565b005b3480156102c057600080fd5b506102e96004803603810190808035906020019092919080359060200190929190505050610940565b005b3480156102f757600080fd5b50610300610a81565b604051808215151515815260200191505060405180910390f35b34801561032657600080fd5b5061032f610a94565b005b34801561033d57600080fd5b50610346610b96565b6040518080602001828103825283818151815260200191508051906020019080838360005b8381101561038657808201518184015260208101905061036b565b50505050905090810190601f1680156103b35780820380516001836020036101000a031916815260200191505b509250505060405180910390f35b3480156103cd57600080fd5b506103d6610c34565b005b3480156103e457600080fd5b506103ed610d04565b604051808273ffffffffffffffffffffffffffffffffffffffff1673ffffffffffffffffffffffffffffffffffffffff16815260200191505060405180910390f35b34801561043b57600080fd5b506104f0600480360381019080803590602001908201803590602001908080601f0160208091040260200160405190810160405280939291908181526020018383808284378201915050505050509192919290803590602001908201803590602001908080601f01602080910402602001604051908101604052809392919081815260200183838082843782019150505050505091929192908035906020019092919080359060200190929190505050610d2a565b005b61051a6004803603810190808035906020019092919080359060200190929190505050610fd8565b005b34801561052857600080fd5b506105316112e1565b6040518082815260200191505060405180910390f35b34801561055357600080fd5b50610588600480360381019080803573ffffffffffffffffffffffffffffffffffffffff1690602001909291905050506112e7565b005b60028054600181600116156101000203166002900480601f0160208091040260200160405190810160405280929190818152602001828054600181600116156101000203166002900480156106205780601f106105f557610100808354040283529160200191610620565b820191906000526020600020905b81548152906001019060200180831161060357829003601f168201915b505050505081565b6006602052806000526040600020600091509050806000015490806001015490806002018054600181600116156101000203166002900480601f0160208091040260200160405190810160405280929190818152602001828054600181600116156101000203166002900480156106e05780601f106106b5576101008083540402835291602001916106e0565b820191906000526020600020905b8154815290600101906020018083116106c357829003601f168201915b505050505090806003018054600181600116156101000203166002900480601f01602080910402602001604051908101604052809291908181526020018280546001816001161561010002031660029004801561077e5780601f106107535761010080835404028352916020019161077e565b820191906000526020600020905b81548152906001019060200180831161076157829003601f168201915b5050505050908060040154908060050154905086565b6000809054906101000a900473ffffffffffffffffffffffffffffffffffffffff1673ffffffffffffffffffffffffffffffffffffffff163373ffffffffffffffffffffffffffffffffffffffff161415156107ef57600080fd5b600160009054906101000a900473ffffffffffffffffffffffffffffffffffffffff1673ffffffffffffffffffffffffffffffffffffffff166108fc3073ffffffffffffffffffffffffffffffffffffffff16319081150290604051600060405180830381858888f1935050505015801561086e573d6000803e3d6000fd5b50565b6000809054906101000a900473ffffffffffffffffffffffffffffffffffffffff1673ffffffffffffffffffffffffffffffffffffffff163373ffffffffffffffffffffffffffffffffffffffff161415156108cc57600080fd5b600060149054906101000a900460ff1615156108e757600080fd5b6000600560006101000a81548160ff0219169083151502179055507f0c3ccd23c1836807297aca2fda302f40baf2f67f3f9628351b352a91742c6c426001604051808215151515815260200191505060405180910390a1565b6000809054906101000a900473ffffffffffffffffffffffffffffffffffffffff1673ffffffffffffffffffffffffffffffffffffffff163373ffffffffffffffffffffffffffffffffffffffff1614151561099b57600080fd5b8160006109b38260045461134e90919063ffffffff16565b10151515610a29576040517f08c379a00000000000000000000000000000000000000000000000000000000081526004018080602001828103825260148152602001807f50726f6475637420646f6e27742065786973742e00000000000000000000000081525060200191505060405180910390fd5b816006600085815260200190815260200160002060010181905550827f5444e27daf0e59f39bc95935f5339c69ddfad9bccd2e151cbd50d6067b06c0d8836040518082815260200191505060405180910390a2505050565b600560009054906101000a900460ff1681565b6000809054906101000a900473ffffffffffffffffffffffffffffffffffffffff1673ffffffffffffffffffffffffffffffffffffffff163373ffffffffffffffffffffffffffffffffffffffff16141515610aef57600080fd5b6000809054906101000a900473ffffffffffffffffffffffffffffffffffffffff1673ffffffffffffffffffffffffffffffffffffffff167ff8df31144d9c2f0f6b59d69b8b98abd5459d07f2742c4df920b25aae33c6482060405160405180910390a260008060006101000a81548173ffffffffffffffffffffffffffffffffffffffff021916908373ffffffffffffffffffffffffffffffffffffffff160217905550565b60038054600181600116156101000203166002900480601f016020809104026020016040519081016040528092919081815260200182805460018160011615610100020316600290048015610c2c5780601f10610c0157610100808354040283529160200191610c2c565b820191906000526020600020905b815481529060010190602001808311610c0f57829003601f168201915b505050505081565b6000809054906101000a900473ffffffffffffffffffffffffffffffffffffffff1673ffffffffffffffffffffffffffffffffffffffff163373ffffffffffffffffffffffffffffffffffffffff16141515610c8f57600080fd5b600060149054906101000a900460ff16151515610cab57600080fd5b6001600560006101000a81548160ff0219169083151502179055507f0e2fb031ee032dc02d8011dc50b816eb450cf856abd8261680dac74f72165bd26001604051808215151515815260200191505060405180910390a1565b600160009054906101000a900473ffffffffffffffffffffffffffffffffffffffff1681565b610d326114b5565b6000809054906101000a900473ffffffffffffffffffffffffffffffffffffffff1673ffffffffffffffffffffffffffffffffffffffff163373ffffffffffffffffffffffffffffffffffffffff16141515610d8d57600080fd5b846020815111151515610d9f57600080fd5b846020815111151515610db157600080fd5b60c060405190810160405280610dd3600160045461136790919063ffffffff16565b8152602001600081526020018881526020018781526020018681526020018581525092508260066000610e12600160045461136790919063ffffffff16565b815260200190815260200160002060008201518160000155602082015181600101556040820151816002019080519060200190610e509291906114ec565b506060820151816003019080519060200190610e6d9291906114ec565b506080820151816004015560a08201518160050155905050610e9b600160045461136790919063ffffffff16565b60048190555082600001517fb5af4bc43b8512ddfb43851169a03f0270f40a3aa07e19afcb272a0d58625fcd8460400151856060015186608001518760a00151604051808060200180602001858152602001848152602001838103835287818151815260200191508051906020019080838360005b83811015610f2b578082015181840152602081019050610f10565b50505050905090810190601f168015610f585780820380516001836020036101000a031916815260200191505b50838103825286818151815260200191508051906020019080838360005b83811015610f91578082015181840152602081019050610f76565b50505050905090810190601f168015610fbe5780820380516001836020036101000a031916815260200191505b50965050505050505060405180910390a250505050505050565b816000610ff08260045461134e90919063ffffffff16565b10151515611066576040517f08c379a00000000000000000000000000000000000000000000000000000000081526004018080602001828103825260148152602001807f50726f6475637420646f6e27742065786973742e00000000000000000000000081525060200191505060405180910390fd5b8282600061109382600660008681526020019081526020016000206001015461134e90919063ffffffff16565b10151515611109576040517f08c379a00000000000000000000000000000000000000000000000000000000081526004018080602001828103825260138152602001807f4e6f7420656e6f7567682070726f647563742e0000000000000000000000000081525060200191505060405180910390fd5b848461113481600660008581526020019081526020016000206004015461138390919063ffffffff16565b34101515156111ab576040517f08c379a00000000000000000000000000000000000000000000000000000000081526004018080602001828103825260118152602001807f4e6f7420656e6f7567682045746865722e00000000000000000000000000000081525060200191505060405180910390fd5b6111d486600660008a81526020019081526020016000206001015461134e90919063ffffffff16565b6006600089815260200190815260200160002060010181905550867f7a53680a44b794c8ef9f1d38676e09a22df8a9bae6949d9da9d275b78d8d74d6876040518082815260200191505060405180910390a261124f81600660008581526020019081526020016000206004015461138390919063ffffffff16565b3411156112d8573373ffffffffffffffffffffffffffffffffffffffff166108fc6112ab61129c84600660008881526020019081526020016000206004015461138390919063ffffffff16565b3461134e90919063ffffffff16565b9081150290604051600060405180830381858888f193505050501580156112d6573d6000803e3d6000fd5b505b50505050505050565b60045481565b6000809054906101000a900473ffffffffffffffffffffffffffffffffffffffff1673ffffffffffffffffffffffffffffffffffffffff163373ffffffffffffffffffffffffffffffffffffffff1614151561134257600080fd5b61134b816113bb565b50565b600082821115151561135c57fe5b818303905092915050565b6000818301905082811015151561137a57fe5b80905092915050565b60008083141561139657600090506113b5565b81830290508183828115156113a757fe5b041415156113b157fe5b8090505b92915050565b600073ffffffffffffffffffffffffffffffffffffffff168173ffffffffffffffffffffffffffffffffffffffff16141515156113f757600080fd5b8073ffffffffffffffffffffffffffffffffffffffff166000809054906101000a900473ffffffffffffffffffffffffffffffffffffffff1673ffffffffffffffffffffffffffffffffffffffff167f8be0079c531659141344cd1fd0a4f28419497f9722a3daafe3b4186f6b6457e060405160405180910390a3806000806101000a81548173ffffffffffffffffffffffffffffffffffffffff021916908373ffffffffffffffffffffffffffffffffffffffff16021790555050565b60c0604051908101604052806000815260200160008152602001606081526020016060815260200160008152602001600081525090565b828054600181600116156101000203166002900490600052602060002090601f016020900481019282601f1061152d57805160ff191683800117855561155b565b8280016001018555821561155b579182015b8281111561155a57825182559160200191906001019061153f565b5b509050611568919061156c565b5090565b61158e91905b8082111561158a576000816000905550600101611572565b5090565b905600a165627a7a72305820a033c391802ab59b000bfcbc7eded3f794b44b16a8862b6f8dc4d6571db8a0390029",
  "source": "pragma solidity ^0.4.24;\n\nimport \"openzeppelin-solidity/contracts/math/SafeMath.sol\";\nimport \"openzeppelin-solidity/contracts/ownership/Ownable.sol\";\nimport \"openzeppelin-solidity/contracts/lifecycle/Pausable.sol\";\n\n// Storeowners marketplace\ncontract Store is Ownable, Pausable {\n  using SafeMath for uint256;\n\n  address public owner;\n  string public name;\n  string public description;\n  uint256 public newestProductId;\n  bool public paused = false;\n\n  mapping (uint256 => Product) public productsById;\n\n  struct Product {\n\n    uint id;\n    uint productCount;\n    string name;\n    string description;\n    uint price;\n    uint quantity;\n  }\n\n  event NewProductAdded(string name, string description, uint256 indexed id, uint256 price, uint256 quantity);\n  event ProductCountUpdated(uint256 indexed id, uint256 newProductCount);\n  event PurchaseMade(uint256 indexed id, uint256 quantity);\n  event Paused(bool ispaused);\n  event Unpaused(bool isunpaused);\n\n  /**@dev check if string is not too long */\n\n  modifier stringLengthOkay(string str) {\n    require(bytes(str).length <= 32);\n    _;\n  }\n\n/**@dev check if product exists\n  *@param id of the product */\n\n  modifier idExists(uint256 id) {\n    require(\n      newestProductId.sub(id) >= 0,\n      \"Product don't exist.\");\n    _;\n  }\n\n/**@dev check if there is enough product\n  *@param id id of the product\n  *@param quantity quantity of the product */\n\n  modifier enoughProduct(uint256 id, uint256 quantity) {\n    require(\n      productsById[id].productCount.sub(quantity) >= 0,\n      \"Not enough product.\");\n    _;\n  }\n\n  /** * @dev check if costumer sent enough ether for the quantity of the product the costumer wants to buy\n      * @param id id of the product that the costumer is buying \n      * @param quantity quantity of the product that the costumer is buying*/\n\n  modifier enoughEthSent(uint256 id, uint256 quantity) {\n      require(\n        msg.value >= productsById[id].price.mul(quantity),\n        \"Not enough Ether.\");\n\n      _;\n\n      if (msg.value > productsById[id].price.mul(quantity)) {\n        msg.sender.transfer(msg.value.sub(productsById[id].price.mul(quantity)));\n      }\n  }\n\n   constructor(address sender, string storeName, string storeDescription) \n    public\n    stringLengthOkay(storeName)\n    stringLengthOkay(storeDescription) {\n    owner = sender;\n    name = storeName;\n    description = storeDescription;\n    newestProductId = 0;\n  }\n\n   /** @dev Owner can add products to store.\n    * @param newProductName The name of the product.\n    * @param newProductDescription The description of the product.\n    * @param newProductPrice The price of the product.\n    * @param newProductQuantity The quantity of the product\n    */\n\n  function addNewProduct(string newProductName, string newProductDescription, uint256 newProductPrice, uint256 newProductQuantity)\n    public\n    onlyOwner\n    stringLengthOkay(newProductName)\n    stringLengthOkay(newProductDescription) {\n      \n      Product memory newProduct = Product({\n      id: newestProductId.add(1), \n      productCount: 0, \n      name: newProductName, \n      description: newProductDescription,\n      price: newProductPrice,\n      quantity: newProductQuantity\n    });\n\n    productsById[newestProductId.add(1)] = newProduct;\n    newestProductId = newestProductId.add(1);\n    emit NewProductAdded(newProduct.name, newProduct.description, newProduct.id, newProduct.price, newProduct.quantity);\n  }\n\n /** @dev Owner can withdraw any funds from the store.\n    */\n  function withdraw() public payable onlyOwner {\n        owner.transfer(address(this).balance);\n  }\n  \n  /** @dev Owner can update the productCount.\n    * @param id The id of the product.\n    * @param newProductCount The updated product count.\n    */\n\n  function updateProductCount(uint256 id, uint256 newProductCount)\n    public\n    onlyOwner\n    idExists(id) {\n      productsById[id].productCount = newProductCount;\n      emit ProductCountUpdated(id, newProductCount);\n  }\n\n/** @dev Costumers call this to purchase a given product from the store.\n    * @param id The id of the product.\n    * @param quantity The number of product the user is buying.\n    */\n\n  function purchaseProduct(uint256 id, uint256 quantity)\n    public \n    payable\n    idExists(id)\n    enoughProduct(id, quantity)\n    enoughEthSent(id, quantity) {\n\n      productsById[id].productCount = productsById[id].productCount.sub(quantity);\n      emit PurchaseMade(id, quantity);\n      \n  }\n\n   /**\n   * @dev called by the owner to pause, triggers stopped state\n   */\n  function pause() public onlyOwner whenNotPaused {\n    paused = true;\n    emit Paused(true);\n  }\n\n  /**\n   * @dev called by the owner to unpause, returns to normal state\n   */\n  function unpause() public onlyOwner whenPaused {\n    paused = false;\n    emit Unpaused(true);\n  }\n\n\n \n}\n",
  "sourcePath": "C:\\Users\\kissg\\marketplace\\contracts\\Store.sol",
  "compiler": {
    "name": "solc",
    "version": "0.4.24+commit.e67f0147.Emscripten.clang"
  },
  "schemaVersion": "2.0.1",
  "updatedAt": "2018-08-26T17:20:59.163Z"
}